:1010200000700020C14B040043FB03008FFE03004F
:101030003B010400130804004708040000000000FE
:101040000000000000000000000000004B08040049
:101050002B4404000000000067470400F7D00300A1
:101060005D43040067430400714304007B430400B4
:10107000854304008F43040099430400A343040004
:10108000AD430400B7430400C1430400CB43040054
:10109000D5430400DF430400E9430400F3430400A4
:1010A000FD430400155104001551040015510400BE
:1010B0001551040015510400155104001551040088
:1010C00015510400155104003D4E0400474E040024
:1010D000514E04001551040015510400155104002F
:1010E0001551040015510400155104001551040058
:1010F000155104001551040015510400A14F0400BE
:10110000AB4F0400155104001551040015510400A3
:101110001551040015510400155104001551040027
:101120001551040015510400155104001551040017
:101130001551040015510400155104001551040007
:1011400015510400155104001551040015510400F7
:1011500015510400155104001551040015510400E7
:1011600015510400155104001551040015510400D7
:10117000155104009D14040015510400155104007C
:1011800015510400155104001551040015510400B7
:101190001551040015510400E5460400EF46040013
:1011A0000D470400174704002147040015510400AF
:1011B000155104002B470400354704001551040065
:1011C0003F47040015510400155104001551040057
:1011D0004947040053470400155104005D470400CB
:1011E0001551040015510400155104001551040057
:1011F0001551040015510400155104001551040047
:101200001551040015510400155104001551040036
:101210001551040015510400155104001551040026
:10141000155104001551040015510400FFFFFFFF92
:10142000FFFFFFFFFFFFFFFFFFFFFFFFFE7FFFFF4D
:10143000C14504000200000031AA0300470100007A
:1014400089204E14480048004800020401AA070001
:1014500000005C0101070266010801074001010765
:101460000108023B015F01580104025801083C01D8
:1014700001070166023B0158020401A7010401A70C
:10148000020401340107380101070166023B0158DB
:10149000030401A7020402A70204015801663601F1
:1014A0000366015F030401A7010401AD01B201ACB1
:1014B000010401A703040158010033010108036678
:1014C000015F01A0010401A7010401890164010673
:1014D00001E301BF070401000107300101080466B0
:1014E000013B04040253014D0304018A02B50404C4
:1014F000010001082E010166073B015F0304015E44
:10150000020401830107028A0108018304040134F3
:10151000013B2C0101080A3B0158040401AE0107FC
:10152000018A0108018306040134013B01072A01F5
:101530000C3B01340804018A020401830304020005
:101540000107280101080E3B06040183018A01837B
:10155000020402830204020001082701013B016624
:101560000E3B0504048301040383010401580100B8
:10157000013B010825010107113B015806040383C3
:1015800004040158023B010824010108113B010039
:10159000020404830104028301040158010401834D
:1015A00001040134023B010723010108123B01340D
:1015B0000204028301040183028A020401830304FA
:1015C0000100023B23010108133B013401040158CF
:1015D00001830304028301040183028A0183015809
:1015E000023B016622010108143B01580204015824
:1015F0000304018A02830104018A02040134013BCD
:10160000010022010107153B015802040383028AED
:101610000104015803830158020001662201063BC0
:1016200002000E3B01580183028A018301040283F8
:10163000015804830158013B010022010166043B6B
:1016400004000D3B013401040283010401580183AD
:10165000028A048301040200016621010107033BA1
:1016600002000134018A015F0E3B02580683018AA1
:1016700002830358013B01002201033B0200028A5E
:10168000025F01000D3B01580783035801830104E9
:101690000200010821010108023B0200045F0E3B29
:1016A0000134015804830358028303580100013BAD
:1016B0002201023B0200035F023401000D3B01588E
:1016C00002830358018301580134025801830158F1
:1016D00001340100010721010108023B0100035F01
:1016E00002340100063B0100073B0258038301342A
:1016F00004000134018301580100016622010166E2
:10170000013B0200025F02340100023B0300013B87
:101710000300053B0158038301580100013B0134DC
:10172000013B020001340104020022010107023BD7
:101730000200013B0134013B0100013B0800063B74
:10174000015802830134013B0134015F0158013427
:10175000020002580100010722010108023B0700B4
:10176000013B018A015F013B0400053B0134028318
:10177000013B0134045F02000134010401000166F1
:101780002301073B0200018A01B5025F023B03000F
:10179000053B01580183013B0134045F0134010022
:1017A000013401830134010023010107063B0200DB
:1017B000045F0134013B0300053B01340183015FF9
:1017C0000134045F013401000134025801000107B3
:1017D00023010108053B0200055F0500053B025897
:1017E000013B0134035F013401000134015801045D
:1017F0000100016624010166053B0100035F02341C
:101800000600043B01580183013B0434013B010005
:101810000458013B2501053B0200025F023407002A
:10182000043B0283043B01000134045801002501FC
:101830000108053B0200013B0134013B0700043B6A
:101840000158028301340200013401580183025817
:1018500001040100010825010166013B0300013B71
:101860000C00033B01340683055801340166260150
:10187000013B0100033B0100013B0100023B08006A
:10188000033B0358018308580100260101070100AA
:1018900001E0018A015F0100033B0A00023B0B5893
:1018A000010401002701015F018A025F0134010088
:1018B000013B0200053B0400023B01340B5801349C
:1018C00001082601055F0100013B020001B5018A04
:1018D000015F033B0400023B0B5801340166260103
:1018E0000108035F01340300015F018A025F0134D4
:1018F000033B0400013B0C58013B27010134025F0C
:1019000001340300055F033B0400013B01340B5825
:1019100001002701010703340300013B045F013B81
:101920000600013B01000B5801000A0101E001B56E
:1019300002AE0183020401B5090103E00A010107B7
:10194000013B0300013B0100035F023408000B5818
:1019500001000107070101E0028301040483018AF9
:101960000A0101A702D901AE02D201AE018A070124
:10197000013B0100023B0200015F02340800013B11
:101980000B5801000108070101B50683018A0C010B
:1019900001A701AE02D90183025F018A0601010895
:1019A0000200013B0300023B0800013B01340A58DE
:1019B00001000108070101AE0283015801830104FF
:1019C00001AE0E0102A701AE025F0158015F0701DF
:1019D000043B0D0001340A5801000166050101AE07
:1019E0000483015F015801AE100101A70183015F6B
:1019F00001580283018A0601016602B5015F013BBD
:101A00000100023B0A000A5801000166030101AE11
:101A1000048301B50258018312010158015F025885
:101A20000283010401B504010166018A035F013BE1
:101A30000100013B0A00013408580134010001662D
:101A40000201048301E0030101B5130101070258FB
:101A5000010701B503830104018A02010108045F43
:101A6000013B0200013B0A0008580200013B020151
:101A7000018A018301E01F0101B5028301340107DE
:101A800001010107035F02340200013B0B0006580D
:101A90000300013B260101B5018A0301035F023403
:101AA0000200013B0C000134025801340400013BE8
:101AB0002B0101070134015F02340200013B1400D5
:101AC000013B2C01033B1800013B2C010166013B4B
:101AD0000300013B1500013B2C010108063B1400EB
:101AE000013B2C010107063B1400013B2D01053B86
:101AF0001500013B2D01053B1500013B2D01016641
:101B0000043B1500013B2D010108053B1400016653
:101B10002E01053B14002F0101070100033B1300B8
:101B200001082C0101B503010107013B1400010864
:101B300001010183015801AE270101AE0283018A30
:101B400004010108013B1000013B01070201018370
:101B500002580104018A020101E001B51B0101E004
:101B600001A701B5010101AE0483010706010108C7
:101B70000D0001660107050101B5018301580183CC
:101B8000015801AE0304190101E001A70683010712
:101B90000B0102080566020801070A0101B5058369
:101BA0000204170101D901A7058301072301018A56
:101BB00004830204150101D901A70483010425014E
:101BC00001B5015804830204130101D901A705835B
:101BD00001582601045803830104110101AE048356
:101BE0000158028301B52701010702B5028A01836A
:101BF00001580183100102B501073B0189214E14F0
:101C0000480048004800010401CE030000005911BB
:101C10000180010821110170020001081F11011843
:101C2000040001071D110118060001811B11011795
:101C3000080001711A1101800800010819110170D2
:101C40000A000107171101700C000181151101171D
:101C50000E000171141101170E0001711511048895
:101C6000060004881A110180040001081E11018079
:101C7000040001081E110180040001081E110180EA
:101C8000040001081E110180040001081E110180DA
:101C9000040001081E110180040001081E110180CA
:101CA00004000108141101770911018004000108E2
:101CB0000911017709110117010001810811018043
:101CC0000400010808110118010001710811011830
:101CD0000188018108110180040001080811011820
:101CE000018801810811017001180181081101802A
:101CF00004000108081101180181010708110107FA
:101D0000011801810811018004000108081101185F
:101D10000181017007110118018101180181081169
:101D200001700400010808110118018101180181E6
:101D30000611017001710118018108110117048851
:101D40000171081101180181011101070611010833
:101D50000111011801811611011801810111018081
:101D60000511011801010111011801811611011855
:101D70000181011101100181041101100171011192
:101D800001180108068801710811011706880180F1
:101D90000171011101170101041101880311078864
:101DA0000107081101700788031101880311011749
:101DB00001010A110188081101880A11011001713D
:101DC0000211011001810A110188081101880A110C
:101DD00001180101021101880B1101880811018805
:101DE0000B110188021101070B11018808110188EC
:101DF0000B110170021101010B11018808110188FA
:101E00000B110110021101880B11018808110188C2
:101E10000B1101880211011001710A1101880811CA
:101E200001880A11011701010211011801010A11AB
:101E30000188081101880A1101100181031101882C
:101E400003110178068801070811017006880187CF
:101E500003110188041101700171011101170108BA
:101E6000068801810811011806880180017101119D
:101E70000117010704110118010101110118018165
:101E800016110118018101110110018105110108CC
:101E90000111011801811611011801810111018040
:101EA00006110170017101180181081101170488E0
:101EB00001710811011801810111010706110118B2
:101EC0000181011801810811017004000108081145
:101ED0000118018101180181071101080118018110
:101EE0000811018004000108081101180181017026
:101EF0000811017001180181081101800400010816
:101F000008110118018101070811011801880181D8
:101F100008110180040001080811011801880181DD
:101F20000911010001810811018004000108081154
:101F3000011801000A11017709110180040001084C
:101F40000911017714110180040001081E1101809C
:101F5000040001081E110180040001081E11018007
:101F6000040001081E110180040001081E110180F7
:101F7000040001081E110180040001081E110180E7
:101F8000040001081A1104880600048815110117BD
:101F90000E000171141101170E000171151101706D
:101FA0000C000181171101700A000107191101804D
:101FB000080001081A110117080001711B1101180E
:101FC000060001811D110118040001071F11017095
:101FD00002000108211101800108591189224E14C3
:101FE000480048004800010401C2030000005911E4
:101FF00001800108211101700187011801081F11DA
:10200000011801080211017001071D1101180108D2
:102010000411018001811B110117010001710411DC
:102020000117010001711A110180018106110118C7
:102030000108191101700107081101180107171192
:10204000017801070A1101700181151101170108BA
:102050000C1101800171141101170108038801811D
:10206000041101170388018001711511048801080A
:102070000411017004881A110188041101881E11CD
:102080000188041101881E110188041101881E11A4
:102090000188041101881E110188041101881E1194
:1020A0000188041101881E110188041101881E1184
:1020B00001880411018814110177091101880411A4
:1020C0000188091101770911011701000181081127
:1020D000018804110188081101180100017108111B
:1020E0000110010001810811018804110188081103
:1020F000011801000101081101700100018108119E
:102100000188041101880811011801000107081154
:1021100002000181081101880411018808110118C9
:1021200002000711011802000181081101700488E2
:102130000108081101180200018106110170020056
:1021400001810811011704880171081101180200AA
:102150000107061103000181161101180300051182
:1021600001180300018116110118030001810411F7
:102170000110030001080688017108110117068883
:10218000018003000101041101800A000107081108
:1021900001700A000108031101170B000108081162
:1021A00001800B000171021101100B0001080811E0
:1021B00001800B000101021101800B0001080811D0
:1021C00001800B00010802110C00010808110180B8
:1021D0000C0002110C000108081101800C00021112
:1021E00001800B000108081101800B000108021199
:1021F00001100B000108081101800B000101021100
:1022000001180B000108081101800B000181031166
:102210000B000107081101700B000411017003008D
:102220000108068801810811011806880180030051
:1022300001070411011803000181161101180300A0
:102240000181051103000181161101180300061117
:102250000170020001810811011704880171081141
:10226000011802000107061101180200018108117E
:10227000017004880108081101180200018107118A
:102280000200018108110188041101880811011858
:102290000200081101700100018108110188041178
:1022A0000188081101180100010708110118010037
:1022B0000181081101880411018808110118010029
:1022C00001810911010001810811018804110188AF
:1022D0000811011801000A11017709110188041180
:1022E00001880911017714110188041101881E1158
:1022F0000188041101881E110188041101881E1132
:102300000188041101881E110188041101881E1121
:102310000188041101881E110188041101881E1111
:102320000188041101881A11048801080411017040
:1023300004881511011701080388017104110117A0
:102340000388018001711411011701080C1101802B
:1023500001711511017801070A110170018117112E
:10236000017001070811011801071911018001818D
:102370000611011801081A11011701000171041159
:102380000117010001711B110118010804110180DE
:1023900001811D11011801080211017001071F11AF
:1023A00001700187011801082111018001085911EC
:1023B00089264E144800480048000104010004002A
:1023C000000059110180010821110170020001086B
:1023D0001F110118040001071D11011806000181D9
:1023E0001B110117080001711A1101800800010872
:1023F000191101700A000107171101700C00018109
:10240000151101170E000171141101170E00017151
:1024100015110488060004881A11018004000108BF
:102420001E110180040001081E1101800400010832
:102430001E110180040001081E1101800400010822
:102440001E110180040001081E1101800400010812
:102450001E11018004000108141101770911018087
:102460000400010809110177091101170100018118
:102470000811018004000108081101180100017110
:102480000811011801880181081101800400010868
:1024900008110118018801810811017001180181DA
:1024A00008110180040001080811011801810107C9
:1024B00008110107011801810811018004000108B9
:1024C000081101180181017007110118018101181B
:1024D000018108110170040001080811011801812F
:1024E00001180181061101700171011801810811A3
:1024F00001170488017108110118018101110107F8
:10250000061101080111011801811611011801813C
:10251000011101800511011801010111011801814A
:10252000161101180181011101100181041101101E
:1025300001710111011801080688017108110117C4
:102540000688018001710111011701010411018840
:10255000031107880107081101700788031101881A
:102560000311011701010A110188081101880A11DC
:10257000011001710211011001810A110188081175
:1025800001880A1101180101021101880B1101884B
:10259000081101880B110188021101070B11018834
:1025A000081101880B110170021101010B11018842
:1025B000081101880B110110021101880B1101880B
:1025C000081101880B1101880211011001710A1113
:1025D0000188081101880A1101170101021101186F
:1025E00001010A110188081101880A1101100181F5
:1025F0000311018803110178068801070811017091
:10260000068801870311018804110170017101110D
:102610000117010806880181081101180688018048
:1026200001710111011701070411011801010111C4
:102630000118018116110118018101110110018198
:1026400005110108011101180181161101180181FC
:102650000111018006110170017101180181081139
:102660000117048801710811011801810111010786
:1026700006110118018101180181081101700488F7
:1026800001080811011801810118018107110108D1
:10269000011801810811018804110188081101182D
:1026A0000181017008110170011801810811018870
:1026B000041101880811011801810107081101188E
:1026C000018801810811018804110188081101188D
:1026D000018801810911010001810811018804119B
:1026E00001880811011801000A11017709110188F8
:1026F000041101880911017714110188041101885E
:102700001E110188041101881E110188041101881D
:102710001E110188041101881E110188041101880D
:102720001E110188041101881E11018804110188FD
:102730001E110188041101881A110488010804116E
:102740000170048815110117010803880171041133
:1027500001170388018001711411011701080C1180
:10276000018001711511017801070A1101700181C1
:1027700017110170010708110118010719110180D3
:1027800001810611011801081A11011701000171D8
:1027900004110117010001711B1101180108041136
:1027A000018001811D11011801080211017001074A
:1027B0001F11017001870118010821110180010812
:1027C000591189274E14480048004800010401FAB5
:1027D00003000000591101800108211101700187D7
:1027E000011801081F1101180108021101700107E9
:1027F0001D11011801080411018001811B1101172D
:102800000100017104110117010001711A11018009
:102810000181061101180108191101700107081141
:10282000011801071711017801070A1101700181D0
:102830001511011701080C11018001711411011704
:1028400001080388018104110117038801800171C7
:102850001511048801080411017004881A110188F7
:10286000041101881E110188041101881E110188BC
:10287000041101881E110188041101881E110188AC
:10288000041101881E110188041101881E1101889C
:10289000041101881E1101880411018814110177A7
:1028A0000911018804110188091101770911011723
:1028B0000100018108110188041101880811011823
:1028C00001000171081101180188018108110188B6
:1028D000041101880811011801000101081101709B
:1028E00001180181081101880411018808110118DB
:1028F0000100010708110107011801810811018871
:102900000411018808110118020007110118018142
:1029100001180181081101700488010808110118CB
:102920000200018106110170017101180181081175
:10293000011704880171081101180200010706112E
:102940000108011101180181161101180300051178
:10295000011801010111011801811611011803006C
:10296000018104110110017101110118010806888B
:10297000017108110117068801800300010104118B
:102980000188031107880107081101700A00010876
:102990000311011701010A110188081101800B00C0
:1029A00001710211011001810A11018808110180D1
:1029B0000B000101021101880B110188081101802F
:1029C0000B000108021101070B1101880811018099
:1029D0000C00021101010B110188081101800C008B
:1029E000021101880B110188081101800B000108F8
:1029F0000211011001710A110188081101800B00F8
:102A000001010211011801010A1101880811018058
:102A10000B00018103110188031101780688010769
:102A2000081101700B0004110170017101110117EF
:102A30000108068801810811011806880180030039
:102A4000010704110118010101110118018116117A
:102A5000011803000181051101080111011801810C
:102A6000161101180300061101700171011801818E
:102A700008110117048801710811011802000107EB
:102A800006110118018101180181081101700488E3
:102A9000010808110118020001810711010801183D
:102AA0000181081101880411018808110118020030
:102AB00008110170011801810811018804110188B1
:102AC000081101180100010708110118018801818E
:102AD0000811018804110188081101180100018101
:102AE00009110100018108110188041101880811F0
:102AF000011801000A1101770911018804110188E8
:102B00000911017714110188041101881E1101882F
:102B1000041101881E110188041101881E11018809
:102B2000041101881E110188041101881E110188F9
:102B3000041101881E110188041101881E110188E9
:102B4000041101881A110488010804110170048815
:102B50001511011701080388017104110117038879
:102B6000018001711411011701080C11018001711C
:102B70001511017801070A11017001811711017007
:102B800001070811011801071911018001810611BF
:102B9000011801081A110117010001710411011730
:102BA000010001711B11011801080411018001814C
:102BB0001D11011801080211017001071F11017098
:102BC0000187011801082111018001085911892884
:102BD0004E144800480048000104010004000000B1
:102BE00059110180010821110170018701180108A4
:102BF0001F11011801080211017001071D110118B0
:102C000001080411018001811B11011701000171EC
:102C100004110117010001711A11018001810611CF
:102C200001180108191101700107081101180107A5
:102C30001711017801070A1101700181151101179F
:102C400001080C110180017114110117010803889A
:102C50000181041101170388018001711511048895
:102C600001080411017004881A11018804110188F7
:102C70001E110188041101881E11018804110188A8
:102C80001E110188041101881E1101880411018898
:102C90001E110188041101881E1101880411018888
:102CA0001E1101880411018814110177091101888E
:102CB000041101880911017709110117010001812F
:102CC000081101880411018808110118010001711F
:102CD0000811011801880181081101880411018877
:102CE0000811011801880181081101700118018182
:102CF00008110188041101880811011801810107D8
:102D000008110107011801810811018804110188C7
:102D100008110118018101700711011801810118C2
:102D2000018108110170048801080811011801814E
:102D3000011801810611017001710118018108114A
:102D4000011704880171081101180181011101079F
:102D500006110108011101180181161101180181E4
:102D600001110180051101180101011101180181F2
:102D700016110118018101110110018104110110C6
:102D8000017101110118010806880171081101176C
:102D900006880180017101110117010104110188E8
:102DA00003110788010708110170078803110188C2
:102DB0000311011701010A110188081101880A1184
:102DC000011001710211011001810A11018808111D
:102DD00001880A1101180101021101880B110188F3
:102DE000081101880B110188021101070B110188DC
:102DF000081101880B110170021101010B110188EA
:102E0000081101880B110110021101880B110188B2
:102E1000081101880B1101880211011001710A11BA
:102E20000188081101880A11011701010211011816
:102E300001010A110188081101880A11011001819C
:102E40000311018803110178068801070811017038
:102E500006880187031101880411017001710111B5
:102E600001170108068801810811011806880180F0
:102E7000017101110117010704110118010101116C
:102E80000118018116110118018101110110018140
:102E900005110108011101180181161101180181A4
:102EA00001110180061101700171011801810811E1
:102EB000011704880171081101180181011101072E
:102EC0000611011801810118018108110170040027
:102ED0000108081101180181011801810711010879
:102EE000011801810811018004000108081101186E
:102EF0000181017008110170011801810811018020
:102F000004000108081101180181010708110118C6
:102F100001880181081101800400010808110118CD
:102F2000018801810911010001810811018004005B
:102F300001080811011801000A1101770911018027
:102F4000040001080911017714110180040001082F
:102F50001E110180040001081E11018004000108F7
:102F60001E110180040001081E11018004000108E7
:102F70001E110180040001081E11018004000108D7
:102F80001E110180040001081A110488060004883B
:102F9000151101170E000171141101170E000171B6
:102FA000151101700C000181171101700A00010751
:102FB00019110180080001081A1101170800017198
:102FC0001B110118060001811D11011804000107E1
:102FD0001F1101700200010821110180010859111F
:102FE00089294E14480048004800010401FA0300F2
:102FF0000000591101800108211101700187011899
:1030000001081F11011801080211017001071D11AB
:10301000011801080411018001811B110117010031
:10302000017104110117010001711A110180018160
:103030000611011801081911017001070811011882
:1030400001071711017801070A110170018115119B
:10305000011701080C1101800171141101170108F9
:103060000388018104110117038801800171151182
:10307000048801080411017004881A1101880411E0
:1030800001881E110188041101881E110188041194
:1030900001881E110188041101881E110188041184
:1030A00001881E110188041101881E110188041174
:1030B00001881E110188041101881411017709117A
:1030C0000188041101880911017709110117010014
:1030D00001810811018804110188081101180100FB
:1030E000017108110110010001810811018804110A
:1030F000018808110118018801810811017001007F
:103100000181081101880411018808110118018149
:1031100001070811020001810811018804110188CA
:1031200008110118018101700711011802000181C5
:1031300008110170048801080811011801810118A3
:103140000181061101700200018108110117048834
:103150000171081101180181011101070611030015
:103160000181161101180181011101800511011859
:103170000300018116110118018101110110018163
:1031800004110110030001080688017108110117DC
:1031900006880180017101110117010104110180EC
:1031A0000A00010708110170078803110188031143
:1031B00001170B000108081101880A1101100171A3
:1031C000021101100B000108081101880A110118F1
:1031D0000101021101800B000108081101880B1187
:1031E000018802110C000108081101880B110170FF
:1031F00002110C000108081101880B1101100211C5
:1032000001800B000108081101880B1101880211CF
:1032100001100B000108081101880A1101170101B2
:10322000021101180B000108081101880A11011090
:10323000018103110B000107081101700688018745
:10324000031101880411017003000108068801813F
:103250000811011806880180017101110117010789
:1032600004110118030001811611011801810111D7
:10327000011001810511030001811611011801815E
:10328000011101800611017002000181081101176E
:10329000048801710811011801810111010706114B
:1032A0000118020001810811017004880108081149
:1032B0000118018101180181071102000181081123
:1032C0000188041101880811011801810170081199
:1032D00001700100018108110188041101880811A1
:1032E000011801810107081101180100018108116D
:1032F0000188041101880811011801880181091150
:1033000001000181081101880411018808110118C8
:1033100001000A11017709110188041101880911BE
:10332000017714110188041101881E11018804110C
:1033300001881E110188041101881E1101880411E1
:1033400001881E110188041101881E1101880411D1
:1033500001881E110188041101881E1101880411C1
:1033600001881A11048801080411017004881511DC
:1033700001170108038801710411011703880180F6
:1033800001711411011701080C110180017115114F
:10339000017801070A1101700181171101700107FD
:1033A0000811011801071911018001810611011886
:1033B00001081A1101170100017104110117010020
:1033C00001711B11011801080411018001811D11F7
:1033D000011801080211017001071F110170018716
:1033E000011801082111018001085911892A4E1480
:1033F00048004800480001040124040000007A113C
:1034000001880187201101170180020001081E11A7
:103410000118020001080188018001081C1101182F
:10342000020001080311018001071A1101170100B0
:10343000018001070211011001080117010001714B
:1034400018110117018001870108021101100108FC
:103450000187011101700108181101800181011813
:10346000010101110178018801810311010001812D
:1034700016110118010702110100017101180181E3
:10348000041101180100017115110180017102116F
:103490000118010807110180010815110107041125
:1034A0000118010706110110010001811311011813
:1034B000018105110180018106110208131101101B
:1034C00001810511011701080611017001800181B8
:1034D0001211011007110170018105110117010777
:1034E0000108121101700811010806110180011074
:1034F0000181111101700811017001810511011084
:10350000018101081111017008110117010705114E
:10351000011701070170111101700911017001718A
:103520000511018001180181101101100911011804
:103530000101051101100187010110110110017134
:1035400009110188051101170107018810110118DF
:10355000018109110110017105110188017010111B
:103560000117010109110118010105110110017074
:103570000181101101080A110188051101180108C3
:103580000101101101800A110110017105110108DA
:103590000107101101100171091101180101021137
:1035A0000118010801810180018810110118010131
:1035B0000A11010801110117020001080110018020
:1035C000111101080A110170011101100300018895
:1035D00001000181101101700A11011801810170AF
:1035E00003000107010801011011011801810911EF
:1035F0000117010701700300010801800101111189
:1036000001070A11018801700400017001081111FD
:1036100001700A1102700400011801001111011853
:103620000181091101180180040001180100121123
:103630000108091101170108030001080111010027
:10364000017111110170017109110108018002005D
:1036500001070111018001811111011801010911F6
:1036600001700118020001710111018001011211A4
:1036700001080911011001710117017102110110F6
:103680000101121101700171081101180181041169
:1036900001100107121101180101081101170101A0
:1036A00004110118010813110188091101070411FF
:1036B0000117010013110110017108110188051192
:1036C0000100131101180101081101700511010019
:1036D0000171131101080811011001710411018019
:1036E0000181131101700171071101180181041189
:1036F0000180018113110118018107110118018155
:103700000411018001811411010707110117010142
:10371000041101800101141101880811010704112D
:1037200001800101141101100171071101880411B8
:103730000188010114110118018107110180041190
:103740000107010114110117010107110110017195
:1037500002110118020115110107071101180101D9
:103760000211017001710101151101880811018018
:1037700001710118010801110107151101880811D3
:1037800001180200017101110107151101700D11DD
:1037900001071511011001710C1101071511011814
:1037A00001810C1101071511011801810C1101078C
:1037B0001511011701010C11010715110117010164
:1037C0000C110107161101010C1101071611010757
:1037D0000C110101161101880B11011801011611BC
:1037E000011001810A110110018116110117010850
:1037F0000A1101801811017001070811018001816F
:103800001911018001070611018001071B110180B8
:1038100001000488010001871D110117048801714E
:103820007611892B4E1448004800480001040156C7
:10383000050000008B110170010001810911017860
:103840000488017112110200018108110180010830
:103850000488020001870E1101180300018107117D
:103860000110010706110117018001080D110170F7
:103870000300018107110108091101780108017194
:103880000B110170030001810611011001810A1161
:103890000118010001710A1101170177020001816D
:1038A000061101800C110118010801710B11018032
:1038B00001000181061101070D11011801080B110A
:1038C0000180010001810511011801810E110170B3
:1038D00001070A1101800100018105110110017128
:1038E0000F11018001810911018001000181051181
:1038F00001701011011701080911018001000181F7
:10390000051101881111011801070811018001003A
:103910000181051101880811011701880171071142
:10392000018001710711018001000181051101076A
:1039300007110118020001080711011801070511FC
:1039400001170177020001870177041101070711B0
:1039500004000101071101800171041101700500CB
:1039600004110107061101180400010807110117CD
:10397000010704110170050004110188061101708E
:1039800005000171021101780187031101800171A5
:103990000311011805880411018806110180050032
:1039A00001810111018001080180018102110118CA
:1039B00001010D110170061101800500018101183E
:1039C0000107021101800171021101800D11011026
:1039D00001710511018005000181018003110118A9
:1039E00001010211011001810C1101180181051161
:1039F000018005000171010704110108031101088C
:103A00000D11010705110110050001170101041135
:103A100001880311017001710C1101800511011859
:103A200004000107011701010411017003110118BD
:103A300001010C11011001710511018003000181C8
:103A40000117010104110180041101080C11011872
:103A50000101061101800100018702110101041119
:103A600001880411017001710C1101880B1101080A
:103A70000311011701010411011801010C110110BA
:103A800001710A11017001810211011001810511FA
:103A900001080C11011701070A1101170100018724
:103AA00001780108011102880171021101700D11E4
:103AB000018001710A110117018001080171017073
:103AC00001080188010001710111011801810C1127
:103AD000011801010D11011701080211011801015E
:103AE0000111011701010D11018001710711018000
:103AF0000100010801710111011001810311018808
:103B0000021101080D110118010706110118010821
:103B10000111011801080111018004110110017146
:103B2000011101800E110180017105110180031145
:103B30000170018101880411011801810111011036
:103B400001710D110117010804110117010703117B
:103B500001170101018804110118018101110118E7
:103B600001810E11017001810311011801810411FD
:103B700001070188041101180181011101170101D8
:103B80000F1101080311011801810411018801704E
:103B9000041101100171021101070F1101100181BF
:103BA0000211011801810411018801100181031122
:103BB0000188031101881011018802110118018187
:103BC0000411010701170108021101180101031175
:103BD00001701011011801010111011701010311F8
:103BE0000117010101110170010801880100017133
:103BF00003110110017110110180021101800311E4
:103C00000110018101170177017801880171041108
:103C1000011801811011011801810111011801071A
:103C2000011101170108011802000108061101180D
:103C30000101111101080211018002000181010836
:103C400001710111017001810611010111110110B1
:103C500001810411011801810311010806110107F6
:103C6000121101080411017004110170061101887C
:103C700012110170017103110188041101100181F9
:103C800005110188121101180101031101880411A5
:103C90000118018105110170131101080311018838
:103CA0000411011801810511011013110170031194
:103CB0000188041101100171051101100171121127
:103CC0000110017102110110041101800611011887
:103CD0000181121101180181021101180101021163
:103CE00001170107061101180181121101170101C5
:103CF0000311018001810117018001810611011862
:103D000001011311010703110117020001870711B7
:103D100001170101131101880F110101131101880D
:103D20000F110107131101700F1101071311011079
:103D30000F1101881311011001710E110188131167
:103D4000011001710E1101881311011801810E116A
:103D500001881311011801810E1101881311011836
:103D600001810E1101701311011701010E1101885B
:103D7000141101010E110188141101800E88010730
:103D8000141101170E8801719311892C4E144800EB
:103D90004800480001040154050000008B11017027
:103DA00001000181091101780488017112110200DA
:103DB00001810811018001080488020001870E11A9
:103DC00001180300018107110110010706110117F5
:103DD000018001080D110170030001810711010824
:103DE00009110178010801710B11017003000181B3
:103DF0000611011001810A110118010001710A1157
:103E00000117017702000181061101800C110118D0
:103E1000010801710B1101800100018106110107E8
:103E20000D11011801080B1101800100018105111C
:103E3000011801810E11017001070A1101800100B2
:103E400001810511011001710F110180018109111A
:103E50000180010001810511017010110117010895
:103E6000091101800100018105110188111101185A
:103E70000107081101800100018105110188081165
:103E8000011701880171071101800171071101807B
:103E900001000181051101070711011801000188C6
:103EA0000108071101180107051101170177020028
:103EB0000187017704110107071101080171011140
:103EC00001100181071101800171041101700500C9
:103ED000041101070611011801810311018807115E
:103EE0000117010704110170050004110188061172
:103EF0000170041101100171021101780187031191
:103F0000018001710311011805880411018806114F
:103F10000188041101180181011101800200018151
:103F20000211011801010D1101700611018804111F
:103F300001180181011804000171021101800D11A5
:103F4000011001710511018804110118018101801E
:103F5000040001010211011001810C1101180181FD
:103F60000511018004110110017105000108031100
:103F700001080D11010705110110017103110170F4
:103F80000117050001080311017001710C11018076
:103F90000511011801070211011701070117060099
:103FA0000311011801010C110110017105110180AB
:103FB00001880177018001810117060004110108C1
:103FC0000C11011801010611018001000187021185
:103FD000050001080411017001710C1101880B1119
:103FE000050001010411011801010C1101100171FA
:103FF0000A11017004000181051101080C1101175B
:1040000001070A110117030001080111028801715B
:10401000021101700D11018001710A110117018057
:10402000010801710170010801880100017101118D
:10403000011801810C11011801010D11011701086E
:104040000211011801010111011701010D11018077
:1040500001710711018001000108017101110110B6
:10406000018103110188021101080D1101180107D6
:104070000611011801080111011801080111018040
:10408000041101100171011101800E1101800171F3
:1040900005110180031101700181018804110118CB
:1040A00001810111011001710D11011701080411A5
:1040B00001170107031101170101018804110118FB
:1040C00001810111011801810E110170018103119B
:1040D00001180181041101070188041101180181EF
:1040E0000111011701010F110108031101180181CC
:1040F00004110188017004110110017102110107FE
:104100000F110110018102110118018104110188B0
:104110000110018103110188031101881011018828
:104120000211011801810411010701170108021190
:104130000118010103110170101101180101011191
:10414000011701010311011701010111017001089B
:10415000018801000171031101100171101101802A
:10416000021101800311011001810117017701780B
:1041700001880171041101180181101101180181D8
:1041800001110118010701110117010801180200AE
:104190000108061101180101111101080211018025
:1041A00002000181010801710111017001810611F4
:1041B0000101111101100181041101180181031184
:1041C0000108061101071211010804110170041100
:1041D000017006110188121101700171031101882B
:1041E000041101100181051101881211011801014A
:1041F00003110188041101180181051101701311C7
:104200000108031101880411011801810511011031
:1042100013110170031101880411011001710511BE
:10422000011001711211011001710211011004112C
:10423000018006110118018112110118018102117A
:10424000011801010211011701070611011801816E
:104250001211011701010311018001810117018071
:104260000181061101180101131101070311011742
:1042700002000187071101170101131101880F11B5
:104280000101131101880F110107131101700F11A2
:104290000107131101100F11018813110110017191
:1042A0000E1101881311011001710E1101881311F3
:1042B000011801810E1101881311011801810E11DD
:1042C00001881311011801810E11017013110117DA
:1042D00001010E110188141101010E110188141140
:1042E00001800E880107141101170E8801719311C6
:1042F000892D4E144800480048000104015805006B
:1043000000008B11017001000181091101780488FE
:104310000171121102000181081101800108048855
:10432000020001870E11011803000181071101101D
:10433000010706110117018001080D11017003002A
:1043400001810711010809110178010801710B11A0
:104350000170030001810611011001810A11011889
:10436000010001710A110117017702000181061194
:1043700001800C110118010801710B11018001006D
:104380000181061101070D11011801080B110180AF
:10439000010001810511011801810E110170010751
:1043A0000A110180010001810511011001710F1135
:1043B0000180018109110180010001810511017055
:1043C0001011011701080911018001000181051177
:1043D00001881111011801070811018001000181F4
:1043E0000511018808110117018801710711018069
:1043F00001710711018001000181051101070711F9
:1044000001180100018801080711011801070511B1
:1044100001170177020001870177041101070711D5
:104420000108017101110110018107110180017161
:104430000411017005000411010706110118018122
:10444000031101880711011701070411017005000C
:10445000041101880611017004110110017102118B
:10446000017801870311018001710311011805888A
:10447000041101880611018804110118018101113C
:1044800001800108018001810211011801010D1153
:10449000017006110188041101180181011801073A
:1044A000021101800171021101800D1101100171D1
:1044B00005110188041101180181018003110118FF
:1044C00001010211011001810C1101180181051176
:1044D0000180041101100171010704110108031189
:1044E00001080D110107051101100171031101707F
:1044F00001170101041101880311017001710C11F0
:1045000001800511011801070211011701070117A8
:104510000101041101700311011801010C110110B6
:104520000171051101800188017701800181011766
:10453000010104110180041101080C11011801018D
:104540000611018001000187021101010411018897
:104550000411017001710C1101880B110108031184
:10456000011701010411011801010C110110017161
:104570000A11017001810211011001810511010868
:104580000C11011701070A110117010001870178B9
:104590000108011102880171021101700D110180E1
:1045A00001710A11011701800108017101700300F6
:1045B00001710111011801810C11011801010D1186
:1045C0000117040001010111011701010D11018002
:1045D0000171071101800100010801710111011031
:1045E00004000108021101080D110118010706114C
:1045F00001180108011101180108011101800500CD
:104600000171011101800E110180017105110180FC
:104610000311017001810180050001810111011068
:1046200001710D1101170108041101170107031190
:1046300001170101018005000181011101180181AB
:104640000E1101700181031101180181041101078C
:104650000180050001810111011701010F110108FD
:104660000311011801810411018801700500017115
:10467000021101070F1101100181021101180181BE
:1046800004110188011004000108031101881011B0
:1046900001880211011801810411010701170400AA
:1046A000010103110170101101180101011101171D
:1046B00001010311011701010111017003000171D2
:1046C0000311011001711011018002110180031109
:1046D000011001810117017701780188017104112E
:1046E0000118018110110118018101110118010740
:1046F0000111011701080118020001080611011833
:10470000010111110108021101800200018101085B
:1047100001710111017001810611010111110110D6
:10472000018104110118018103110108061101071B
:1047300012110108041101700411017006110188A1
:10474000121101700171031101880411011001811E
:1047500005110188121101180101031101880411CA
:10476000011801810511017013110108031101885D
:1047700004110118018105110110131101700311B9
:10478000018804110110017105110110017112114C
:1047900001100171021101100411018006110118AC
:1047A0000181121101180181021101180101021188
:1047B00001170107061101180181121101170101EA
:1047C0000311018001810117018001810611011887
:1047D00001011311010703110117020001870711DD
:1047E00001170101131101880F1101011311018833
:1047F0000F110107131101700F110107131101109F
:104800000F1101881311011001710E11018813118C
:10481000011001710E1101881311011801810E118F
:1048200001881311011801810E110188131101185B
:1048300001810E1101701311011701010E11018880
:10484000141101010E110188141101800E88010755
:10485000141101170E8801719311892E4E1448000E
:10486000480048000104015A050000008B11017046
:1048700001000181091101780488017112110200FF
:1048800001810811018001080488020001870E11CE
:10489000011803000181071101100107061101171A
:1048A000018001080D110170030001810711010849
:1048B00009110178010801710B11017003000181D8
:1048C0000611011001810A110118010001710A117C
:1048D0000117017702000181061101800C110118F6
:1048E000010801710B11018001000181061101070E
:1048F0000D11011801080B11018001000181051142
:10490000011801810E11017001070A1101800100D7
:1049100001810511011001710F110180018109113F
:1049200001800100018105110170101101170108BA
:10493000091101800100018105110188111101187F
:10494000010708110180010001810511018808118A
:1049500001170188017107110180017107110180A0
:1049600001000181051101070711011801000188EB
:10497000010807110118010705110117017702004D
:104980000187017704110107071101080171011165
:1049900001100181071101800171041101700500EE
:1049A0000411010706110118018103110188071183
:1049B0000117010704110170050004110188061197
:1049C00001700411011001710211017801870311B6
:1049D0000180017103110118058804110188061175
:1049E0000188041101180181011101800108018071
:1049F00001810211011801010D11017006110188D8
:104A000004110118018101180107021101800171CF
:104A1000021101800D1101100171051101880411AD
:104A20000118018101800311011801010211011017
:104A300001810C110118018105110180041101107F
:104A40000171010704110108031101080D1101078B
:104A50000511011001710311017001170101041109
:104A600001880311017001710C11018005110118F9
:104A7000010702110117010701170101041101705B
:104A80000311011801010C110110017105110180C0
:104A90000188017701800181011701010411018062
:104AA000041101080C110118010106110180010017
:104AB00001870211010104110188041101700171C3
:104AC0000C1101880B1101080311011701010411D8
:104AD000011801010C11011001710A11017001810D
:104AE000021101100181051101080C1101170107C4
:104AF0000A110117010001870178010801110288DC
:104B00000171021101700D11018001710A1101176B
:104B10000180010801710170010801880100017123
:104B20000111011801810C11011801010D1101176A
:104B300001080211011801010111011701010D11F4
:104B4000018001710711018001000108017101114B
:104B50000110018103110188021101080D110118D2
:104B60000107061101180300010801110180041159
:104B700001100171011101800E11018001710511F7
:104B800001800400018101880411011801810111D3
:104B9000011001710D110117010804110117050021
:104BA000010101880411011801810111011801811D
:104BB0000E11017001810311011805000107018820
:104BC0000411011801810111011701010F110108E0
:104BD0000311011805000108017004110110017191
:104BE000021101070F1101100181021101180500C6
:104BF00001080110018103110188031101881011BE
:104C000001880211011805000107011701080211AE
:104C100001180101031101701011011801010111A6
:104C2000011705000101011101700108018801004F
:104C30000171031101100171101101800211018035
:104C400004000181011701770178018801710411C5
:104C500001180181101101180181011101180300CF
:104C600001080118020001080611011801011111C3
:104C70000108021101800200018101080171011186
:104C8000017001810611010111110110018104114E
:104C90000118018103110108061101071211010811
:104CA00004110170041101700611018812110170C4
:104CB000017103110188041101100181051101889E
:104CC0001211011801010311018804110118018159
:104CD0000511017013110108031101880411011855
:104CE00001810511011013110170031101880411D4
:104CF00001100171051101100171121101100171F2
:104D00000211011004110180061101180181121114
:104D10000118018102110118010102110117010797
:104D200006110118018112110117010103110180FF
:104D30000181011701800181061101180101131180
:104D40000107031101170200018707110117010173
:104D5000131101880F110101131101880F110107AF
:104D6000131101700F110107131101100F110188A8
:104D70001311011001710E1101881311011001713D
:104D80000E1101881311011801810E1101881311F0
:104D9000011801810E1101881311011801810E11F2
:104DA00001701311011701010E1101881411010185
:104DB0000E110188141101800E88010714110117CA
:104DC0000E8801719311892F4E1448004800480045
:104DD0000104015A050000008B11017001000181DE
:104DE0000911017804880171121102000181081172
:104DF000018001080488020001870E1101180300D8
:104E00000181071101100107061101170180010836
:104E10000D110170030001810711010809110178CA
:104E2000010801710B1101700300018106110110CD
:104E300001810A110118010001710A11011701779E
:104E400002000181061101800C1101180108017195
:104E50000B11018001000181061101070D110118DC
:104E600001080B1101800100018105110118018168
:104E70000E11017001070A11018001000181051165
:104E8000011001710F1101800181091101800100E0
:104E9000018105110170101101170108091101802C
:104EA0000100018105110188111101180107081184
:104EB0000180010001810511018808110117018895
:104EC0000171071101800171071101800100018149
:104ED00005110107071101180100018801080711D8
:104EE00001180107051101170177020001870177F9
:104EF000041101070711010801710111011001815D
:104F000007110180017104110170050004110107EE
:104F1000061101180181031101880711011701070A
:104F200004110170050004110188061101700411BB
:104F300001100171021101780187031101800171D3
:104F40000311011805880411018806110188041154
:104F50000118018101110180010801800181021104
:104F6000011801010D1101700611018804110118C9
:104F700001810118010702110180017102110180F4
:104F80000D11011001710511018804110118018131
:104F900001800311011801010211011001810C119E
:104FA000011801810511018004110110017101072F
:104FB00004110108031101080D1101070511011069
:104FC000017103110170011701010411018803111E
:104FD000017001710C110180051101180107021106
:104FE00001170107011701010411017003110118D4
:104FF00001010C1101100171051101800188017777
:1050000001800181011701010411018004110108CF
:105010000C11011801010611018001000187021124
:105020000101041101880411017001710C11018842
:105030000B110108031101170101041101180101ED
:105040000C11011001710A1101700181021101108E
:105050000181051101080C11011701070A1101173F
:105060000100018701780108011102880171021114
:1050700001700D11018001710A11011701800108F1
:10508000017101700108018801000171011101180D
:1050900001810C11011801010D1101170108021104
:1050A000011801010111011701010D1101800171A8
:1050B0000711018001000108017101110110018136
:1050C00003110188021101080D11011801070611D1
:1050D00001180108011101180108011101800411D2
:1050E00001100171011101800E1101800171051182
:1050F00001800311017001810188041101180181EF
:105100000111011001710D1101170108041101179E
:105110000107031101170101018804110118018120
:105120000111011801810E11017001810311011893
:105130000181041101070188041101180181011185
:10514000011701010F110108031101180181041158
:1051500001880170041101100171021101070F1182
:10516000011001810211011801810411018801104F
:1051700001810311018803110188101101880211B6
:10518000011801810411010701170108021101181A
:105190000101031101701011011801010111011722
:1051A00001010311011701010111017001080188BA
:1051B0000100017103110110017110110180021130
:1051C0000180031101100181011701770178018825
:1051D00001710411011801811011011801810111DF
:1051E0000118010701110117010801180200010847
:1051F00006110118010111110108021101800200BC
:1052000001810400018106110101111101100181C8
:105210000411011804000108061101071211010808
:10522000041101700500061101881211017001714D
:105230000311018005000181051101881211011877
:105240000101031101800500018105110170131195
:1052500001080311018005000181051101101311DE
:105260000170031101800500017105110110017128
:10527000121101100171021101100500061101182F
:1052800001811211011801810211011804000107A6
:10529000061101180181121101170101031101808A
:1052A0000300018106110118010113110107031107
:1052B000011702000187071101170101131101886D
:1052C0000F110101131101880F1101071311017052
:1052D0000F110107131101100F1101881311011093
:1052E00001710E1101881311011001710E11018855
:1052F0001311011801810E11018813110118018188
:105300000E1101881311011801810E110170131182
:10531000011701010E110188141101010E110188FC
:10532000141101800E880107141101170E880171F4
:10533000931189304E14480048004800010401AA26
:10534000040000008B110170010001810F11017830
:10535000088801870811020001810E110118010857
:1053600008880180018105110118030001810E11D7
:10537000017001710911010805110170030001811B
:105380000E1101080A11017005110170030001815D
:105390000D11011801810A11011801810411011771
:1053A0000177020001810D1101800C11010006112D
:1053B0000180010001810C11018001810C11011893
:1053C000010805110180010001810B11011801077D
:1053D0000E110170018104110180010001810B1186
:1053E00001101011010704110180010001810B114E
:1053F00001881011018804110180010001810B1145
:1054000001881011018804110180010001810B1134
:1054100001881011018804110180010001810B1124
:10542000018810110188021101170177020001871C
:1054300001770A110188101101880211017005001D
:105440000A110107101101700211017005000A1103
:105450000107101101700211011805880A110107D6
:10546000101101701211010703110288017104115A
:105470000117028803110170121101070211018046
:1054800002000108041101000288010702110188CD
:10549000121101070111011804000101021101108C
:1054A000018102110170017101110188121101883D
:1054B0000111017004000108021101880311011794
:1054C00001010111018812110188011101800500FB
:1054D0000211010104110108011101881211018852
:1054E0000111060001710117010104110188011168
:1054F0000188121101880111060001710118018152
:1055000004110170011101881211018801110600B6
:1055100001710117010104110188011101881211A3
:105520000188011101800500021101070411010821
:1055300001110188121101880111011004000108F4
:1055400002110180031101180101011101881211DA
:105550000170011101170400018102110110018184
:1055600002110180017101110188121101700211F3
:105570000170020001080411018001880180010707
:10558000021101071211017003110178018806113F
:105590000188018703110107121101101011010781
:1055A0001211011002110117018001000181041183
:1055B0000118018001080171021101071211011087
:1055C00002110180018701770100017102110117A9
:1055D0000100018701780108021101011211011077
:1055E00001110118010102110118010102110170DC
:1055F00001810211017001810111010112110110DB
:105600000171017004110188021101880311011751
:105610000101011101011211011001710188041130
:10562000017002110101041101880111010112111F
:10563000011001710107041101100171011801012C
:1056400004110188011701011211011001710107F4
:105650000411011001710118018104110170011779
:1056600001011211011801810107041101100171DA
:10567000011701010411018801170101121101181C
:105680000181018804110170021101070411010850
:10569000011801811211011801810110018103110A
:1056A0000107021101800311011801010118018194
:1056B0001211011801810117010802110170018105
:1056C0000211011801070211018001710118018105
:1056D00012110118018101110170010801800108F6
:1056E00004110180010801800107011101180181E5
:1056F0001211011801810211017801870611017848
:1057000001870211011801811211011801810E1186
:10571000011801811211011801810E110118018176
:105720001211011801810E110118018112110118C5
:1057300001810E11011801811211011801810E1150
:10574000011801811211011801810E110118018146
:105750001211011801810E11011801811211011796
:1057600001010E11011801811211011701010E1121
:10577000011801811211011701010E110118018197
:105780001211011701010E110110017112110117FF
:1057900001010E11011001711211011701010E1109
:1057A000011001711211011701010E110110017197
:1057B0001211011701010E110110017112110117CF
:1057C00001010E1101100171131101010E110110DF
:1057D0000171131101070E110110017113110180E4
:1057E0000E880108141101180E8801819A1189315F
:1057F0004E14480048004800010401A804000000BD
:105800008B110170010001810F1101780888018757
:105810000811020001810E11011801080888018099
:10582000018105110118030001810E110170017140
:105830000911010805110170030001810E11010811
:105840000A11017005110170030001810D11011889
:1058500001810A1101180181041101170177020069
:1058600001810D1101800C11010006110180010060
:1058700001810C11018001810C1101180108051131
:105880000180010001810B11011801070E11017047
:10589000018104110180010001810B11011010111F
:1058A000010704110180010001810B110188101111
:1058B000018804110180010001810B110188101180
:1058C000018804110180010001810B110188101170
:1058D000018804110180010001810B110188101160
:1058E00001880211011701770200018701770A116F
:1058F0000188101101880211017005000A110107C9
:10590000101101700211017005000A110107101138
:1059100001700211011805880A11010710110170A8
:105920001211010703110288017104110117028885
:105930000311017012110107021101800288010890
:1059400004110100028801070211018812110107E8
:1059500001110118010702110118010102110110C2
:105960000181021101700171011101881211018878
:105970000111017001710311010802110188031165
:10598000011701010111018812110188011101881B
:1059900004110170021101010411010801110188B3
:1059A0001211018801110107041101100171011781
:1059B00001010411018801110188121101880111EE
:1059C0000107041101100171011801810411017016
:1059D0000111018812110188011101070411011040
:1059E00001710117010104110188011101881211CF
:1059F00001880111018804110170021101070411CD
:105A000001080111018812110188011101100171B1
:105A10000311018802110180031101180101011114
:105A20000188121101700111011701070211011003
:105A30000181021101100181021101800171011126
:105A4000018812110170021101700108018801081A
:105A50000411018001880180010702110107121160
:105A60000170031101780188061101880187031173
:105A7000010712110110101101071211011002117A
:105A80000117018001000181041101180180010842
:105A900001710211010712110110021101800300AE
:105AA000017102110117010001870178010802113B
:105AB000010112110110011101180400010102116C
:105AC00001700181021101700181011101011211A6
:105AD0000110017101700400010802110188031115
:105AE0000117010101110101121101100171018061
:105AF00005000211010104110188011101011211B7
:105B000001100171060001710118010104110188E1
:105B10000117010112110110017106000171011834
:105B20000181041101700117010112110118018195
:105B3000060001710117010104110188011701011B
:105B400012110118018101800500021101070411E1
:105B500001080118018112110118018101100400CE
:105B600001070211018003110118010101180181CF
:105B7000121101180181011704000181021101189D
:105B80000107021101800171011801811211011830
:105B90000181011101700200010804110180010856
:105BA0000180010701110118018112110118018101
:105BB000021101780187061101780187021101188D
:105BC00001811211011801810E11011801811211B8
:105BD000011801810E1101180181121101180181B2
:105BE0000E11011801811211011801810E11011805
:105BF00001811211011801810E1101180181121188
:105C0000011801810E110118018112110118018181
:105C10000E11011801811211011701010E11011855
:105C200001811211011701010E11011801811211D8
:105C3000011701010E110118018112110117010153
:105C40000E11011001711211011701010E11011045
:105C500001711211011701010E11011001711211D0
:105C6000011701010E11011001711211011701013B
:105C70000E11011001711211011701010E11011015
:105C80000171131101010E110110017113110107AE
:105C90000E1101100171131101800E8801081411F9
:105CA00001180E8801819A1189324E14480048006B
:105CB0004800010401AC040000008B1101700100D8
:105CC00001810F1101780888018708110200018104
:105CD0000E110118010808880180018105110118C1
:105CE000030001810E1101700171091101080511F4
:105CF0000170030001810E1101080A1101700511E4
:105D00000170030001810D11011801810A110118B0
:105D10000181041101170177020001810D11018039
:105D20000C11010006110180010001810C1101809C
:105D300001810C1101180108051101800100018188
:105D40000B11011801070E1101700181041101806E
:105D5000010001810B1101101011010704110180D4
:105D6000010001810B1101881011018804110180CB
:105D7000010001810B1101881011018804110180BB
:105D8000010001810B1101881011018804110180AB
:105D9000010001810B110188101101880211011706
:105DA00001770200018701770A110188101101882B
:105DB0000211017005000A11010710110170021192
:105DC000017005000A11010710110170021101187C
:105DD00005880A1101071011017012110107031142
:105DE0000288017104110117028803110170121158
:105DF0000107021101800288010804110300010754
:105E00000211018812110107011101180107021185
:105E10000118010102110110040001710111018832
:105E200012110188011101700171031101080211A1
:105E30000180040001010111018812110188011182
:105E40000188041101700211050001080111018887
:105E500012110188011101070411011001710117CC
:105E600005000108011101881211018801110107C3
:105E700004110110017101180600011101881211AD
:105E800001880111010704110110017101170500BA
:105E90000108011101881211018801110188041102
:105EA0000170021105000108011101881211018819
:105EB0000111011001710311018802110180040018
:105EC000010101110188121101700111011701076F
:105ED0000211011001810211011004000171011170
:105EE0000188121101700211017001080188010876
:105EF0000411018002000107021101071211017053
:105F00000311017801880611018801870311010737
:105F100012110110101101071211011002110117C5
:105F20000180010001810411011801800108017143
:105F3000021101071211011002110180018701777E
:105F400001000171021101170100018701780108A8
:105F500002110101121101100111011801010211B8
:105F6000011801010211017001810211017001810A
:105F70000111010112110110017101700411018858
:105F80000211018803110117010101110101121110
:105F90000110017101880411017002110101041145
:105FA0000188011101011211011001710107041191
:105FB000011001710118010104110188011701018B
:105FC0001211011001710107041101100171011872
:105FD00001810411017001170101121101180181E1
:105FE0000107041101100171011701010411018859
:105FF00001170101121101180181018804110170BA
:106000000211010704110108011801811211011880
:1060100001810110018103110107021101800311A7
:1060200001180101011801811211011801810117E4
:10603000010802110170018102110118010702110A
:1060400001800171011801811211011801810111F2
:10605000017001080180010804110180010801801C
:1060600001070111011801811211011801810211AA
:106070000178018706110178018702110118018159
:106080001211011801810E1101180181121101185C
:1060900001810E11011801811211011801810E11E7
:1060A000011801811211011801810E1101180181DD
:1060B0001211011801810E1101180181121101182C
:1060C00001810E11011801811211011801810E11B7
:1060D000011801811211011701010E11011801812E
:1060E0001211011701010E1101180181121101177E
:1060F00001010E11011801811211011701010E1188
:10610000011001711211011701010E11011001712D
:106110001211011701010E11011001711211011765
:1061200001010E11011001711211011701010E116F
:10613000011001711211011701010E1101100171FD
:10614000131101010E1101100171131101070E113C
:1061500001100171131101800E880108141101183A
:106160000E8801819A1189334E1448004800480076
:10617000010401AA040000008B11017001000181DB
:106180000F110178088801870811020001810E11A2
:106190000118010808880180018105110118030018
:1061A00001810E11017001710911010805110170C1
:1061B000030001810E1101080A110170051101701F
:1061C000030001810D11011801810A1101180181DB
:1061D000041101170177020001810D1101800C11DA
:1061E000010006110180010001810C110180018173
:1061F0000C110118010805110180010001810B112A
:10620000011801070E1101700181041101800100C4
:1062100001810B110110101101070411018001000F
:1062200001810B1101881011018804110180010006
:1062300001810B11018810110188041101800100F6
:1062400001810B11018810110188041101800100E6
:1062500001810B11018810110188021101170177CA
:106260000200018701770A110188101101880211CB
:10627000017005000A11010710110170021101706F
:1062800005000A110107101101700211011805889B
:106290000A11010710110170121101070311028880
:1062A0000171041101170288031101701211010715
:1062B000021101800288010804110100028801070F
:1062C00002110188121101070111011801070211C1
:1062D0000118010102110110018102110170017107
:1062E000011101881211018801110170017103115E
:1062F0000108021101880311011701010111018830
:1063000012110188011101880411017002110101AB
:1063100004110108011101881211018801110107FE
:10632000041101100171011701010411018801110B
:106330000188121101880111010704110110017176
:1063400001180181041101700111018812110188E5
:10635000011101070411011001710117010104115C
:1063600001880111018812110188011101880411AD
:1063700001700211010704110108011101881211B5
:1063800001880111011001710311018802110180BE
:10639000031101180101011101881211017001118D
:1063A0000117010702110110018102110110018181
:1063B0000211018001710111018812110170021195
:1063C0000170010801880108041101800188018021
:1063D00001070211010712110170031101780188F0
:1063E0000611018801870311010712110110101114
:1063F0000107121101100211011701800100018132
:106400000411011801800108017102110107121124
:106410000110021101800187017701000171021151
:1064200001170300010802110101121101100111ED
:10643000011801010211011801010211017004008B
:10644000018101110101121101100171017004118A
:1064500001880211018004000101011101011211E2
:106460000110017101880411017002110500010879
:106470000111010112110110017101070411011034
:106480000171011805000108011701011211011025
:1064900001710107041101100171011806000117B3
:1064A000010112110118018101070411011001718C
:1064B00001170500010801170101121101180181DE
:1064C0000188041101700211050001080118018101
:1064D000121101180181011001810311010702113C
:1064E00001800400010101180181121101180181CC
:1064F0000117010802110170018102110118040045
:10650000017101180181121101180181011101703D
:106510000108018001080411018002000107011136
:1065200001180181121101180181021101780187FE
:106530000611017801870211011801811211011859
:1065400001810E11011801811211011801810E1132
:10655000011801811211011801810E110118018128
:106560001211011801810E11011801811211011877
:1065700001810E11011801811211011801810E1102
:10658000011801811211011801810E1101180181F8
:106590001211011701010E110118018112110117C9
:1065A00001010E11011801811211011701010E11D3
:1065B000011801811211011701010E110110017161
:1065C0001211011701010E110110017112110117B1
:1065D00001010E11011001711211011701010E11BB
:1065E000011001711211011701010E110110017149
:1065F0001211011701010E11011001711311010196
:106600000E1101100171131101070E11011001711A
:10661000131101800E880108141101180E880181E0
:106620009A11893B4E144800480048000104016853
:106630000500000097110178048801711D11018087
:1066400001080488020001871A11011001070611D0
:1066500001170180010819110108091101780108C9
:1066600001711611011001810A1101180100017157
:10667000151101800C110118010801711411010795
:106680000D11011801081311011801810E1101707B
:1066900001071211011001710F1101800181111107
:1066A0000170101101170108111101881111011851
:1066B00001071011018808110117018801710711E4
:1066C000018001710F110107071101180200010873
:1066D0000711011801070F1101070711040001013B
:1066E0000711018001710E11010706110118040044
:1066F00001080711011701070E1101880611017029
:1067000005000171021101780187031101800171F7
:106710000D11018806110180050001810111018020
:106720000108018001810211011801010D110170A0
:106730000611018005000181011801070211018085
:106740000171021101800D1101100171051101800B
:1067500005000181018003110118010102110110DE
:1067600001810C11011801810511018005000171E1
:10677000010704110108031101080D11010705119A
:1067800001100500011701010411018803110170B6
:1067900001710C1101800511011804000107011796
:1067A0000101041101700311011801010C11011004
:1067B000017105110180030001810117010104111C
:1067C0000180041101080C1101180101061101805A
:1067D00001000187021101010411018804110170F7
:1067E00001710C1101880B1101080311011701013E
:1067F0000411011801010C11011001710A1101703D
:106800000181021101100181051101080C1101170C
:1068100001070A1101170100018701780108011120
:1068200002880171021101700D11018001710A11BC
:106830000117018001080171017001080188010040
:1068400001710111011801810C11011801010D11D3
:1068500001170108021101180101011101170101BD
:106860000D11018001710711018001000108017102
:1068700001110110018103110188021101080D119C
:10688000011801070611011801080111011801087A
:1068900001110180041101100171011101800E111B
:1068A00001800171051101800311017001810188CE
:1068B0000411011801810111011001710D1101175D
:1068C00001080411011701070311011701010188D3
:1068D0000411011801810111011801810E110170CB
:1068E00001810311011801810411010701880411BC
:1068F000011801810111011701010F110108031194
:106900000118018104110188017004110110017145
:10691000021101070F1101100181021101180181FB
:1069200004110188011001810311018803110188FC
:1069300010110188021101180181041101070117CA
:106940000108021101180101031101701011011851
:1069500001010111011701010311011701010111C9
:10696000017001080188010001710311011001711A
:106970001011018002110180031101100181011722
:10698000017701780188017104110118018110114A
:1069900001180181011101180107011101170108F6
:1069A0000118020001080611011801011111010866
:1069B00002110180020001810108017101110170C1
:1069C0000181061101011111011001810411011849
:1069D00001810311010806110107121101080411B8
:1069E000017004110170061101881211017001710A
:1069F0000311018804110110018105110188121190
:106A00000118010103110188041101180181051108
:106A1000017013110108031101880411011801818B
:106A200005110110131101700311018804110110E7
:106A30000171051101100171121101100171021192
:106A400001100411018006110118018105110118BE
:106A50000180010001080181081101180181021162
:106A60000118010102110117010706110118018126
:106A7000041101170500017107110117010103112C
:106A800001800181011701800181061101180101B6
:106A90000411011705000101081101070311011775
:106AA00002000187071101170101041101170100FC
:106AB000028802000107081101880F110101041169
:106AC00001170187021101700100010808110188F6
:106AD0000F110107081101100100010808110170D0
:106AE0000F11010708110110010001080811011020
:106AF0000F11018808110180010001010811011026
:106B000001710E110188071101170200018108119E
:106B1000011001710E1101880711017001000108B7
:106B20000911011801810E110188061101170200D7
:106B300001010911011801810E110188061101706E
:106B4000010001080A11011801810E1101700511DF
:106B50000118020001810A11011701010E110188BB
:106B600005110180010001080388091101010E11BE
:106B700001880411011806000171081101800E88B6
:106B800001070411011806000171081101170E8890
:106B9000017104110118060001718711893C4E141E
:106BA00048004800480001040166050000009711F4
:106BB0000178048801711D11018001080488020018
:106BC00001871A1101100107061101170180010840
:106BD000191101080911017801080171161101103C
:106BE00001810A11011801000171151101800C11B8
:106BF000011801080171141101070D110118010894
:106C00001311011801810E110170010712110110F9
:106C100001710F1101800181111101701011011713
:106C200001081111018811110118010710110188C3
:106C300008110117018801710711018001710F11FD
:106C40000107071101180100018801080711011847
:106C500001070F110107071101080171011101104E
:106C600001810711018001710E1101070611011840
:106C70000181031101880711011701070E11018815
:106C800006110170041101100171021101780187D0
:106C90000311018001710D11018806110188041191
:106CA0000118018101110180020001810211011806
:106CB00001010D11017006110188041101180181F3
:106CC000011804000171021101800D110110017100
:106CD00005110188041101180181018004000101DE
:106CE0000211011001810C110118018105110180AF
